:100000000C945D000C9485000C9485000C94850084
:100010000C9485000C9485000C9485000C9485004C
:100020000C9485000C9485000C9485000C9485003C
:100030000C9485000C9485000C9485000C9485002C
:100040000C94BA020C9485000C942A030C940403BB
:100050000C9485000C9485000C9485000C9485000C
:100060000C9485000C9485000000000024002700FB
:100070002A0000000000250028002B0004040404CE
:100080000404040402020202020203030303030342
:10009000010204081020408001020408102001021F
:1000A00004081020000000080002010000030407FB
:1000B0000000000000000000C40411241FBECFEFA8
:1000C000D8E0DEBFCDBF11E0A0E0B1E0EEE7FAE09E
:1000D00002C005900D92AC31B107D9F721E0ACE137
:1000E000B1E001C01D92A23CB207E1F710E0CDE5FE
:1000F000D0E004C02197FE010E943205CC35D10723
:10010000C9F70E945C030C943D050C94000090E03C
:10011000FC01EC55FF4F3491FC01E057FF4F249157
:10012000FC01E458FF4FE491EE2309F43BC0332374
:1001300039F1333091F038F43130A9F0323001F533
:1001400084B58F7D12C0373091F03830A1F0343053
:10015000B9F4809180008F7D03C0809180008F77FB
:10016000809380000DC084B58F7784BD09C08091D5
:10017000B0008F7703C08091B0008F7D8093B00076
:10018000F0E0EE0FFF1FEE58FF4FA591B4918FB72F
:10019000F894EC91611103C020952E2301C02E2B01
:1001A0002C938FBF0895CF93DF9390E0FC01E0572D
:1001B000FF4F2491FC01E458FF4F8491882361F1A3
:1001C00090E0880F991FFC01E859FF4FC591D49129
:1001D000FC01EE58FF4FA591B491611109C09FB782
:1001E000F8948881209582238883EC912E230BC07C
:1001F000623061F49FB7F8943881822F8095832311
:100200008883EC912E2B2C939FBF06C08FB7F89458
:10021000E8812E2B28838FBFDF91CF9108953FB7C0
:10022000F8948091210190912201A0912301B09135
:10023000240126B5A89B05C02F3F19F00196A11DEA
:10024000B11D3FBFBA2FA92F982F8827820F911D6C
:10025000A11DB11DBC01CD0142E0660F771F881FB3
:10026000991F4A95D1F70895CF92DF92EF92FF92AE
:100270000F931F93CF93DF936C017A018B01C0E042
:10028000D0E0CE15DF0589F0D8016D918D01D60142
:10029000ED91FC910190F081E02DC6010995892B2B
:1002A00011F47E0102C02196ECCFC701DF91CF91FE
:1002B0001F910F91FF90EF90DF90CF9008950895D8
:1002C00080E090E00895FC01538D448D252F30E0AF
:1002D000842F90E0821B930B541710F0CF96089553
:1002E00001970895FC01918D828D981761F0828DA0
:1002F000DF01A80FB11D5D968C91928D9F5F9F735A
:10030000928F90E008958FEF9FEF0895FC01918DFB
:10031000828D981731F0828DE80FF11D858D90E068
:1003200008958FEF9FEF0895FC01918D228D892F05
:1003300090E0805C9F4F821B91098F7399270895ED
:1003400085E291E00E94940121E0892B09F420E0EC
:10035000822F0895FC01848DDF01A80FB11DA35ADF
:10036000BF4F2C91848D90E001968F739927848FD5
:10037000A689B7892C93A089B1898C9180648C93CC
:10038000938D848D981306C00288F389E02D8081B7
:100390008F7D80830895EF92FF920F931F93CF93E9
:1003A000DF93EC0181E0888F9B8D8C8D981305C0C5
:1003B000E889F989808185FD24C0F62E0B8D10E037
:1003C0000F5F1F4F0F731127E02E8C8DE8120CC0AA
:1003D0000FB607FCFACFE889F989808185FFF5CF50
:1003E000CE010E94AA01F1CF8B8DFE01E80FF11D15
:1003F000E35AFF4FF0820B8FEA89FB89808180628C
:1004000007C0EE89FF896083E889F989808180646B
:10041000808381E090E0DF91CF911F910F91FF9059
:10042000EF900895CF93DF93EC01888D8823C9F076
:10043000EA89FB89808185FD05C0A889B9898C91ED
:1004400086FD0FC00FB607FCF5CF808185FFF2CF88
:10045000A889B9898C9185FFEDCFCE010E94AA01B0
:10046000E7CFDF91CF91089580E090E0892B29F0CC
:100470000E94A00181110C9400000895009769F07A
:10048000FC0101900020E9F73197AF01481B590B9F
:10049000BC0185E291E00C94340180E090E0089585
:1004A0008F929F92AF92BF920F931F93CF93DF9340
:1004B000CDB7DEB7A1970FB6F894DEBF0FBECDBFA4
:1004C00019A2423008F44AE08E010F5D1F4F842EBE
:1004D000912CA12CB12CA50194010E94F104E62FCE
:1004E000B901CA0101501109EA3014F4E05D01C0FC
:1004F000E95CD801EC93232B242B252B61F7C80151
:100500000E943E02A1960FB6F894DEBF0FBECDBF8B
:10051000DF91CF911F910F91BF90AF909F908F90DF
:100520000895CF92DF92EF92FF92CF93DF936B010A
:100530007C01E0912501F09126010190F081E02DF0
:100540006DE285E291E00995EC0166277727CB0102
:100550006C197D098E099F094AE00E9450028C0F98
:100560009D1FDF91CF91FF90EF90DF90CF90089586
:100570000E9438051F920F920FB60F9211242F93ED
:100580003F938F939F93AF93BF9380911D01909161
:100590001E01A0911F01B091200130911C0123E0A8
:1005A000230F2D3720F40196A11DB11D05C026E8AB
:1005B000230F0296A11DB11D20931C0180931D01E4
:1005C00090931E01A0931F01B093200180912101FF
:1005D00090912201A0912301B09124010196A11DC7
:1005E000B11D8093210190932201A0932301B09328
:1005F0002401BF91AF919F918F913F912F910F90C7
:100600000FBE0F901F9018951F920F920FB60F926A
:1006100011242F933F934F935F936F937F938F9307
:100620009F93AF93BF93EF93FF9385E291E00E9476
:10063000AA01FF91EF91BF91AF919F918F917F910F
:100640006F915F914F913F912F910F900FBE0F903F
:100650001F9018951F920F920FB60F9211242F938F
:100660008F939F93EF93FF93E0913501F0913601C3
:100670008081E0913B01F0913C0182FD12C09081AC
:1006800080913E018F5F8F7320913F01821751F05F
:10069000E0913E01F0E0EB5DFE4F958F80933E01CF
:1006A00001C08081FF91EF919F918F912F910F90C9
:1006B0000FBE0F901F901895CF93DF9300D000D0FE
:1006C000CDB7DEB7789484B5826084BD84B581608F
:1006D00084BD85B5826085BD85B5816085BD80910D
:1006E0006E00816080936E00109281008091810085
:1006F000826080938100809181008160809381007D
:10070000809180008160809380008091B10084603E
:100710008093B1008091B00081608093B00080919F
:100720007A00846080937A0080917A00826080935E
:100730007A0080917A00816080937A0080917A00BB
:10074000806880937A001092C100E0913501F091A9
:10075000360182E08083E0913101F0913201108214
:10076000E0913301F09134018FEC808310923D01D0
:10077000E0913901F0913A0186E08083E091370100
:10078000F0913801808180618083E0913701F091A0
:100790003801808188608083E0913701F0913801D1
:1007A000808180688083E0913701F09138018081F9
:1007B0008F7D808361E08BE00E94D30061E08AE05E
:1007C0000E94D30060E08EE00E94D30010E494E029
:1007D000492E512C612C712C2FEA222E20E0322E32
:1007E00010937C0080917A00806480937A008091DD
:1007F0007A0086FDFCCF9091780080917900A92E37
:10080000B12CB82A65010B2C000CEE08FF08B7FECE
:1008100005C0C701B6010E94910205C04AE0C701A8
:10082000B6010E94500282E191E00E943E02C7019F
:10083000B601A30192010E941305490161E08BE01A
:1008400029833A834B835C830E94D30029813A81B8
:100850004B815C81211531054105510511F460E0A2
:1008600006C02F3F31054105510529F461E08BE0B9
:100870000E94870043C0F10184918330F9F048F46D
:100880008130B9F08230A1F584B5806284BD28BD85
:1008900035C08730E9F0883019F1843049F580910E
:1008A000800080628093800030938B0020938A00C8
:1008B00025C084B5806884BD27BD20C0809180009C
:1008C000806880938000309389002093880016C050
:1008D0008091B00080688093B0002093B3000EC078
:1008E0008091B00080628093B0002093B40006C075
:1008F000F0E88F1691040CF0B9CFB1CF61E08AE037
:100900000E94D30060E08AE00E94870085E191E0C8
:100910000E943E02B7FE05C0C701B6010E949102C7
:1009200005C04AE0C701B6010E94500282E191E091
:100930000E943E020E940F014B015C0184EFC82E11
:10094000DD24D394E12CF12C0E940F01DC01CB01BA
:1009500088199909AA09BB09883E9340A105B105E8
:1009600058F021E0C21AD108E108F10888EE880E9B
:1009700083E0981EA11CB11CC114D104E104F10450
:1009800019F70E9434022CCFE5E2F1E013821282C3
:1009900088EE93E0A0E0B0E084839583A683B783DC
:1009A00084E091E09183808385EC90E09587848753
:1009B00084EC90E09787868780EC90E0918B808B29
:1009C00081EC90E0938B828B82EC90E0958B848B12
:1009D00086EC90E0978B868B118E128E138E148E80
:1009E0000895A1E21A2EAA1BBB1BFD010DC0AA1F70
:1009F000BB1FEE1FFF1FA217B307E407F50720F088
:100A0000A21BB30BE40BF50B661F771F881F991F02
:100A10001A9469F760957095809590959B01AC014B
:100A2000BD01CF010895052E97FB1EF400940E948E
:100A30002A0557FD07D00E94F10407FC03D04EF4AD
:100A40000C942A0550954095309521953F4F4F4F76
:100A50005F4F089590958095709561957F4F8F4F6A
:100A60009F4F0895EE0FFF1F0590F491E02D09941C
:0E0A700081E090E0F8940C943D05F894FFCFDF
:100A7E0000000000CB0134016301120294017201E7
:0C0A8E0086010D0A0076616C203A200001
:107E0000112484B714BE81FFF0D085E080938100F7
:107E100082E08093C00088E18093C10086E0809377
:107E2000C20080E18093C4008EE0C9D0259A86E02C
:107E300020E33CEF91E0309385002093840096BBD3
:107E4000B09BFECF1D9AA8958150A9F7CC24DD24C4
:107E500088248394B5E0AB2EA1E19A2EF3E0BF2EE7
:107E6000A2D0813461F49FD0082FAFD0023811F036
:107E7000013811F484E001C083E08DD089C08234E0
:107E800011F484E103C0853419F485E0A6D080C0E4
:107E9000853579F488D0E82EFF2485D0082F10E0AE
:107EA000102F00270E291F29000F111F8ED06801E7
:107EB0006FC0863521F484E090D080E0DECF843638
:107EC00009F040C070D06FD0082F6DD080E0C81688
:107ED00080E7D80618F4F601B7BEE895C0E0D1E017
:107EE00062D089930C17E1F7F0E0CF16F0E7DF06D8
:107EF00018F0F601B7BEE89568D007B600FCFDCFD4
:107F0000A601A0E0B1E02C9130E011968C91119780
:107F100090E0982F8827822B932B1296FA010C0160
:107F200087BEE89511244E5F5F4FF1E0A038BF0790
:107F300051F7F601A7BEE89507B600FCFDCF97BE46
:107F4000E89526C08437B1F42ED02DD0F82E2BD052
:107F50003CD0F601EF2C8F010F5F1F4F84911BD097
:107F6000EA94F801C1F70894C11CD11CFA94CF0C13
:107F7000D11C0EC0853739F428D08EE10CD085E9AC
:107F80000AD08FE07ACF813511F488E018D01DD067
:107F900080E101D065CF982F8091C00085FFFCCF94
:107FA0009093C60008958091C00087FFFCCF809118
:107FB000C00084FD01C0A8958091C6000895E0E648
:107FC000F0E098E1908380830895EDDF803219F02E
:107FD00088E0F5DFFFCF84E1DECF1F93182FE3DFCA
:107FE0001150E9F7F2DF1F91089580E0E8DFEE27F6
:047FF000FF270994CA
:027FFE00040479
:0400000300007E007B
:00000001FF
